{
  "_format": "hh-sol-artifact-1",
  "contractName": "STPlatform",
  "sourceName": "contracts/STPlatform.sol",
  "abi": [
    {
      "inputs": [],
      "stateMutability": "nonpayable",
      "type": "constructor"
    },
    {
      "inputs": [],
      "name": "incorrectValue",
      "type": "error"
    },
    {
      "inputs": [],
      "name": "notSeller",
      "type": "error"
    },
    {
      "anonymous": false,
      "inputs": [
        {
          "indexed": false,
          "internalType": "string",
          "name": "_function",
          "type": "string"
        },
        {
          "indexed": false,
          "internalType": "uint256",
          "name": "_order",
          "type": "uint256"
        },
        {
          "indexed": false,
          "internalType": "address",
          "name": "_sender",
          "type": "address"
        },
        {
          "indexed": false,
          "internalType": "uint256",
          "name": "_tokenquantity",
          "type": "uint256"
        },
        {
          "indexed": false,
          "internalType": "address",
          "name": "_tokencontract",
          "type": "address"
        },
        {
          "indexed": false,
          "internalType": "uint256",
          "name": "_time",
          "type": "uint256"
        }
      ],
      "name": "Cancellisting",
      "type": "event"
    },
    {
      "anonymous": false,
      "inputs": [
        {
          "indexed": false,
          "internalType": "string",
          "name": "_function",
          "type": "string"
        },
        {
          "indexed": false,
          "internalType": "address",
          "name": "_sender",
          "type": "address"
        },
        {
          "indexed": false,
          "internalType": "uint256",
          "name": "_value",
          "type": "uint256"
        },
        {
          "indexed": false,
          "internalType": "bytes",
          "name": "_data",
          "type": "bytes"
        }
      ],
      "name": "Log",
      "type": "event"
    },
    {
      "anonymous": false,
      "inputs": [
        {
          "indexed": false,
          "internalType": "string",
          "name": "_function",
          "type": "string"
        },
        {
          "indexed": false,
          "internalType": "uint256",
          "name": "_order",
          "type": "uint256"
        },
        {
          "indexed": false,
          "internalType": "address",
          "name": "_sender",
          "type": "address"
        },
        {
          "indexed": false,
          "internalType": "uint256",
          "name": "_tokenquantity",
          "type": "uint256"
        },
        {
          "indexed": false,
          "internalType": "address",
          "name": "_tokencontract",
          "type": "address"
        },
        {
          "indexed": false,
          "internalType": "uint256",
          "name": "_maticamount",
          "type": "uint256"
        },
        {
          "indexed": false,
          "internalType": "uint256",
          "name": "_time",
          "type": "uint256"
        }
      ],
      "name": "OrderCreate",
      "type": "event"
    },
    {
      "anonymous": false,
      "inputs": [
        {
          "indexed": false,
          "internalType": "string",
          "name": "_function",
          "type": "string"
        },
        {
          "indexed": false,
          "internalType": "address",
          "name": "_sender",
          "type": "address"
        },
        {
          "indexed": false,
          "internalType": "uint256",
          "name": "_value",
          "type": "uint256"
        }
      ],
      "name": "Rec",
      "type": "event"
    },
    {
      "anonymous": false,
      "inputs": [
        {
          "indexed": false,
          "internalType": "string",
          "name": "_function",
          "type": "string"
        },
        {
          "indexed": false,
          "internalType": "uint256",
          "name": "_order",
          "type": "uint256"
        },
        {
          "indexed": false,
          "internalType": "address",
          "name": "_sender",
          "type": "address"
        },
        {
          "indexed": false,
          "internalType": "uint256",
          "name": "_tokenquantity",
          "type": "uint256"
        },
        {
          "indexed": false,
          "internalType": "address",
          "name": "_tokencontract",
          "type": "address"
        },
        {
          "indexed": false,
          "internalType": "uint256",
          "name": "_maticamount",
          "type": "uint256"
        },
        {
          "indexed": false,
          "internalType": "uint256",
          "name": "_time",
          "type": "uint256"
        }
      ],
      "name": "RedeemOrder",
      "type": "event"
    },
    {
      "stateMutability": "payable",
      "type": "fallback"
    },
    {
      "inputs": [
        {
          "internalType": "uint256",
          "name": "",
          "type": "uint256"
        }
      ],
      "name": "Orders",
      "outputs": [
        {
          "internalType": "uint256",
          "name": "_orderNumber",
          "type": "uint256"
        },
        {
          "internalType": "address",
          "name": "seller",
          "type": "address"
        },
        {
          "internalType": "uint256",
          "name": "tokenQuantity",
          "type": "uint256"
        },
        {
          "internalType": "address",
          "name": "tokenContract",
          "type": "address"
        },
        {
          "internalType": "uint256",
          "name": "maticAmount",
          "type": "uint256"
        }
      ],
      "stateMutability": "view",
      "type": "function"
    },
    {
      "inputs": [],
      "name": "_owner",
      "outputs": [
        {
          "internalType": "address",
          "name": "",
          "type": "address"
        }
      ],
      "stateMutability": "view",
      "type": "function"
    },
    {
      "inputs": [
        {
          "internalType": "uint256",
          "name": "_orderNumber",
          "type": "uint256"
        }
      ],
      "name": "cancelOrder",
      "outputs": [],
      "stateMutability": "nonpayable",
      "type": "function"
    },
    {
      "inputs": [
        {
          "internalType": "address",
          "name": "_tokenContract",
          "type": "address"
        },
        {
          "internalType": "uint256",
          "name": "_tokenQuantity",
          "type": "uint256"
        },
        {
          "internalType": "uint256",
          "name": "_maticAmount",
          "type": "uint256"
        }
      ],
      "name": "createOrder",
      "outputs": [],
      "stateMutability": "nonpayable",
      "type": "function"
    },
    {
      "inputs": [],
      "name": "orderNumber",
      "outputs": [
        {
          "internalType": "uint256",
          "name": "_value",
          "type": "uint256"
        }
      ],
      "stateMutability": "view",
      "type": "function"
    },
    {
      "inputs": [
        {
          "internalType": "uint256",
          "name": "_orderNumber",
          "type": "uint256"
        }
      ],
      "name": "redeemOrder",
      "outputs": [],
      "stateMutability": "payable",
      "type": "function"
    },
    {
      "stateMutability": "payable",
      "type": "receive"
    }
  ],
  "bytecode": "0x608060405234801561001057600080fd5b5033600160006101000a81548173ffffffffffffffffffffffffffffffffffffffff021916908373ffffffffffffffffffffffffffffffffffffffff1602179055506112c7806100616000396000f3fe6080604052600436106100595760003560e01c80634a58ca0e146100d9578063514fcac7146100f55780638fb326f21461011e578063acfee8ed1461015f578063b04dd81b14610188578063b2bdfa7b146101b357610099565b36610099577f34177ed636dcb2a2c5065ae7c1f7dde7c90b89dfb7d2cc53ff570a81500bf2b4333460405161008f929190610bfe565b60405180910390a1005b7ff7f75251dee7d7fc22deac3247729ebe7c86541f35930bf10c2a4207479a3b6c33346000366040516100cf9493929190610c98565b60405180910390a1005b6100f360048036038101906100ee9190610d1c565b6101de565b005b34801561010157600080fd5b5061011c60048036038101906101179190610d1c565b61053e565b005b34801561012a57600080fd5b5061014560048036038101906101409190610d1c565b6107f2565b604051610156959493929190610d49565b60405180910390f35b34801561016b57600080fd5b5061018660048036038101906101819190610dc8565b610868565b005b34801561019457600080fd5b5061019d610af1565b6040516101aa9190610e1b565b60405180910390f35b3480156101bf57600080fd5b506101c8610afd565b6040516101d59190610e36565b60405180910390f35b60003403610218576040517f4372ee9d00000000000000000000000000000000000000000000000000000000815260040160405180910390fd5b6002600082815260200190815260200160002060040154341115610268576040517f4372ee9d00000000000000000000000000000000000000000000000000000000815260040160405180910390fd5b600060026000838152602001908152602001600020600401546002600084815260200190815260200160002060020154346102a39190610e80565b6102ad9190610f09565b9050806002600084815260200190815260200160002060020160008282546102d59190610f3a565b92505081905550346002600084815260200190815260200160002060040160008282546103029190610f3a565b9250508190555060006002600084815260200190815260200160002060030160009054906101000a900473ffffffffffffffffffffffffffffffffffffffff1673ffffffffffffffffffffffffffffffffffffffff16338360405160240161036b929190610f6e565b6040516020818303038152906040527fa9059cbb000000000000000000000000000000000000000000000000000000007bffffffffffffffffffffffffffffffffffffffffffffffffffffffff19166020820180517bffffffffffffffffffffffffffffffffffffffffffffffffffffffff83818316178352505050506040516103f59190611011565b6000604051808303816000865af19150503d8060008114610432576040519150601f19603f3d011682016040523d82523d6000602084013e610437565b606091505b505090508061044557600080fd5b6002600084815260200190815260200160002060010160009054906101000a900473ffffffffffffffffffffffffffffffffffffffff1673ffffffffffffffffffffffffffffffffffffffff166108fc349081150290604051600060405180830381858888f193505050501580156104c1573d6000803e3d6000fd5b507fd939a7a982d5d31f9f0629664b85fd3ba82ff4ca10dc84417abe85efb7dacaf88333846002600088815260200190815260200160002060030160009054906101000a900473ffffffffffffffffffffffffffffffffffffffff16344260405161053196959493929190611074565b60405180910390a1505050565b6002600082815260200190815260200160002060010160009054906101000a900473ffffffffffffffffffffffffffffffffffffffff1673ffffffffffffffffffffffffffffffffffffffff163373ffffffffffffffffffffffffffffffffffffffff16146105d9576040517fd7d8bd0800000000000000000000000000000000000000000000000000000000815260040160405180910390fd5b60006002600083815260200190815260200160002060030160009054906101000a900473ffffffffffffffffffffffffffffffffffffffff1673ffffffffffffffffffffffffffffffffffffffff16336002600085815260200190815260200160002060020154604051602401610651929190610f6e565b6040516020818303038152906040527fa9059cbb000000000000000000000000000000000000000000000000000000007bffffffffffffffffffffffffffffffffffffffffffffffffffffffff19166020820180517bffffffffffffffffffffffffffffffffffffffffffffffffffffffff83818316178352505050506040516106db9190611011565b6000604051808303816000865af19150503d8060008114610718576040519150601f19603f3d011682016040523d82523d6000602084013e61071d565b606091505b505090508061072b57600080fd5b60006002600084815260200190815260200160002060020181905550600060026000848152602001908152602001600020600401819055507ff29ad07f908aa57c4f7ae416e52bca8555236f59e29f3d28041b12f6b3d7b122823360026000868152602001908152602001600020600201546002600087815260200190815260200160002060030160009054906101000a900473ffffffffffffffffffffffffffffffffffffffff16426040516107e6959493929190611134565b60405180910390a15050565b60026020528060005260406000206000915090508060000154908060010160009054906101000a900473ffffffffffffffffffffffffffffffffffffffff16908060020154908060030160009054906101000a900473ffffffffffffffffffffffffffffffffffffffff16908060040154905085565b60008373ffffffffffffffffffffffffffffffffffffffff163330856040516024016108969392919061119a565b6040516020818303038152906040527f23b872dd000000000000000000000000000000000000000000000000000000007bffffffffffffffffffffffffffffffffffffffffffffffffffffffff19166020820180517bffffffffffffffffffffffffffffffffffffffffffffffffffffffff83818316178352505050506040516109209190611011565b6000604051808303816000865af19150503d806000811461095d576040519150601f19603f3d011682016040523d82523d6000602084013e610962565b606091505b505090508061097057600080fd5b6040518060a001604052806109856000610b23565b81526020013373ffffffffffffffffffffffffffffffffffffffff1681526020018481526020018573ffffffffffffffffffffffffffffffffffffffff16815260200183815250600260006109da6000610b23565b81526020019081526020016000206000820151816000015560208201518160010160006101000a81548173ffffffffffffffffffffffffffffffffffffffff021916908373ffffffffffffffffffffffffffffffffffffffff1602179055506040820151816002015560608201518160030160006101000a81548173ffffffffffffffffffffffffffffffffffffffff021916908373ffffffffffffffffffffffffffffffffffffffff16021790555060808201518160040155905050610aa16000610b31565b7feecd3ed2c16753130ba0dd768b36e6eb907f8063557957a0a75a790956b04bdf610acc6000610b23565b3385878642604051610ae39695949392919061121d565b60405180910390a150505050565b60008060000154905081565b600160009054906101000a900473ffffffffffffffffffffffffffffffffffffffff1681565b600081600001549050919050565b6001816000016000828254019250508190555050565b600082825260208201905092915050565b7f66616c6c6261636b206d657373616765206661696c6564000000000000000000600082015250565b6000610b8e601783610b47565b9150610b9982610b58565b602082019050919050565b600073ffffffffffffffffffffffffffffffffffffffff82169050919050565b6000610bcf82610ba4565b9050919050565b610bdf81610bc4565b82525050565b6000819050919050565b610bf881610be5565b82525050565b60006060820190508181036000830152610c1781610b81565b9050610c266020830185610bd6565b610c336040830184610bef565b9392505050565b600082825260208201905092915050565b82818337600083830152505050565b6000601f19601f8301169050919050565b6000610c778385610c3a565b9350610c84838584610c4b565b610c8d83610c5a565b840190509392505050565b60006080820190508181036000830152610cb181610b81565b9050610cc06020830187610bd6565b610ccd6040830186610bef565b8181036060830152610ce0818486610c6b565b905095945050505050565b600080fd5b610cf981610be5565b8114610d0457600080fd5b50565b600081359050610d1681610cf0565b92915050565b600060208284031215610d3257610d31610ceb565b5b6000610d4084828501610d07565b91505092915050565b600060a082019050610d5e6000830188610bef565b610d6b6020830187610bd6565b610d786040830186610bef565b610d856060830185610bd6565b610d926080830184610bef565b9695505050505050565b610da581610bc4565b8114610db057600080fd5b50565b600081359050610dc281610d9c565b92915050565b600080600060608486031215610de157610de0610ceb565b5b6000610def86828701610db3565b9350506020610e0086828701610d07565b9250506040610e1186828701610d07565b9150509250925092565b6000602082019050610e306000830184610bef565b92915050565b6000602082019050610e4b6000830184610bd6565b92915050565b7f4e487b7100000000000000000000000000000000000000000000000000000000600052601160045260246000fd5b6000610e8b82610be5565b9150610e9683610be5565b9250817fffffffffffffffffffffffffffffffffffffffffffffffffffffffffffffffff0483118215151615610ecf57610ece610e51565b5b828202905092915050565b7f4e487b7100000000000000000000000000000000000000000000000000000000600052601260045260246000fd5b6000610f1482610be5565b9150610f1f83610be5565b925082610f2f57610f2e610eda565b5b828204905092915050565b6000610f4582610be5565b9150610f5083610be5565b925082821015610f6357610f62610e51565b5b828203905092915050565b6000604082019050610f836000830185610bd6565b610f906020830184610bef565b9392505050565b600081519050919050565b600081905092915050565b60005b83811015610fcb578082015181840152602081019050610fb0565b83811115610fda576000848401525b50505050565b6000610feb82610f97565b610ff58185610fa2565b9350611005818560208601610fad565b80840191505092915050565b600061101d8284610fe0565b915081905092915050565b7f5075726368617365000000000000000000000000000000000000000000000000600082015250565b600061105e600883610b47565b915061106982611028565b602082019050919050565b600060e082019050818103600083015261108d81611051565b905061109c6020830189610bef565b6110a96040830188610bd6565b6110b66060830187610bef565b6110c36080830186610bd6565b6110d060a0830185610bef565b6110dd60c0830184610bef565b979650505050505050565b7f43616e63656c6c696e67204c697374696e670000000000000000000000000000600082015250565b600061111e601283610b47565b9150611129826110e8565b602082019050919050565b600060c082019050818103600083015261114d81611111565b905061115c6020830188610bef565b6111696040830187610bd6565b6111766060830186610bef565b6111836080830185610bd6565b61119060a0830184610bef565b9695505050505050565b60006060820190506111af6000830186610bd6565b6111bc6020830185610bd6565b6111c96040830184610bef565b949350505050565b7f53656c6c696e67204c697374696e670000000000000000000000000000000000600082015250565b6000611207600f83610b47565b9150611212826111d1565b602082019050919050565b600060e0820190508181036000830152611236816111fa565b90506112456020830189610bef565b6112526040830188610bd6565b61125f6060830187610bef565b61126c6080830186610bd6565b61127960a0830185610bef565b61128660c0830184610bef565b97965050505050505056fea2646970667358221220c2d5f1aa49c047809a68d4df9f7efa8d368e5fcb2404c280362cdd74a678a1e764736f6c634300080f0033",
  "linkReferences": {},
  "deployedLinkReferences": {}
}